{
  "_format": "hh-sol-artifact-1",
  "contractName": "Voting",
  "sourceName": "contracts/voting.sol",
  "abi": [
    {
      "inputs": [],
      "stateMutability": "nonpayable",
      "type": "constructor"
    },
    {
      "inputs": [
        {
          "internalType": "address",
          "name": "_candidate",
          "type": "address"
        }
      ],
      "name": "addCandidate",
      "outputs": [],
      "stateMutability": "nonpayable",
      "type": "function"
    },
    {
      "inputs": [],
      "name": "getActiveVotingId",
      "outputs": [
        {
          "internalType": "uint256",
          "name": "",
          "type": "uint256"
        }
      ],
      "stateMutability": "view",
      "type": "function"
    },
    {
      "inputs": [],
      "name": "getBalance",
      "outputs": [
        {
          "internalType": "uint256",
          "name": "",
          "type": "uint256"
        }
      ],
      "stateMutability": "view",
      "type": "function"
    },
    {
      "inputs": [],
      "name": "getVotings",
      "outputs": [
        {
          "components": [
            {
              "internalType": "uint256",
              "name": "startDate",
              "type": "uint256"
            },
            {
              "internalType": "bool",
              "name": "isActive",
              "type": "bool"
            },
            {
              "internalType": "address",
              "name": "winner",
              "type": "address"
            },
            {
              "components": [
                {
                  "internalType": "address",
                  "name": "id",
                  "type": "address"
                },
                {
                  "internalType": "uint256",
                  "name": "votes",
                  "type": "uint256"
                }
              ],
              "internalType": "struct Voting.Candidate[]",
              "name": "candidates",
              "type": "tuple[]"
            }
          ],
          "internalType": "struct Voting.VotingData[]",
          "name": "votingItems",
          "type": "tuple[]"
        }
      ],
      "stateMutability": "view",
      "type": "function"
    },
    {
      "inputs": [],
      "name": "isOwner",
      "outputs": [
        {
          "internalType": "bool",
          "name": "",
          "type": "bool"
        }
      ],
      "stateMutability": "view",
      "type": "function"
    },
    {
      "inputs": [],
      "name": "sendFeeToOwner",
      "outputs": [],
      "stateMutability": "nonpayable",
      "type": "function"
    },
    {
      "inputs": [],
      "name": "stopVoting",
      "outputs": [],
      "stateMutability": "nonpayable",
      "type": "function"
    },
    {
      "inputs": [
        {
          "internalType": "address",
          "name": "_candidate",
          "type": "address"
        }
      ],
      "name": "vote",
      "outputs": [],
      "stateMutability": "payable",
      "type": "function"
    }
  ],
  "bytecode": "0x60806040526001805534801561001457600080fd5b5033600260006101000a81548173ffffffffffffffffffffffffffffffffffffffff021916908373ffffffffffffffffffffffffffffffffffffffff1602179055506118f3806100656000396000f3fe60806040526004361061007b5760003560e01c8063716abd441161004e578063716abd441461011b5780638f32d59b14610146578063b28c08d214610171578063fab2f86b146101885761007b565b806305c1112d1461008057806312065fe0146100ab5780633acd75f8146100d65780636dd7d8ea146100ff575b600080fd5b34801561008c57600080fd5b5061009561019f565b6040516100a29190611336565b60405180910390f35b3480156100b757600080fd5b506100c061037d565b6040516100cd9190611493565b60405180910390f35b3480156100e257600080fd5b506100fd60048036038101906100f89190610ff6565b610385565b005b61011960048036038101906101149190610ff6565b6105d9565b005b34801561012757600080fd5b50610130610873565b60405161013d9190611493565b60405180910390f35b34801561015257600080fd5b5061015b61087c565b6040516101689190611358565b60405180910390f35b34801561017d57600080fd5b506101866108d4565b005b34801561019457600080fd5b5061019d610a13565b005b6060600180546101af9190611612565b67ffffffffffffffff8111156101ee577f4e487b7100000000000000000000000000000000000000000000000000000000600052604160045260246000fd5b60405190808252806020026020018201604052801561022757816020015b610214610f71565b81526020019060019003908161020c5790505b50905060005b6001805461023b9190611612565b8110156103795760405180608001604052806003600060018561025e9190611531565b8152602001908152602001600020600001548152602001600360006001856102869190611531565b815260200190815260200160002060010160009054906101000a900460ff1615158152602001600360006001856102bd9190611531565b815260200190815260200160002060010160019054906101000a900473ffffffffffffffffffffffffffffffffffffffff1673ffffffffffffffffffffffffffffffffffffffff16815260200161031f60018461031a9190611531565b610c9e565b81525082828151811061035b577f4e487b7100000000000000000000000000000000000000000000000000000000600052603260045260246000fd5b602002602001018190525080806103719061168e565b91505061022d565b5090565b600047905090565b600260009054906101000a900473ffffffffffffffffffffffffffffffffffffffff1673ffffffffffffffffffffffffffffffffffffffff163373ffffffffffffffffffffffffffffffffffffffff1614610415576040517f08c379a000000000000000000000000000000000000000000000000000000000815260040161040c90611473565b60405180910390fd5b61041e81610e7b565b1561045e576040517f08c379a000000000000000000000000000000000000000000000000000000000815260040161045590611393565b60405180910390fd5b6000805414156104d657600154600081905550600160008154809291906104849061168e565b9190505550426003600080548152602001908152602001600020600001819055506001600360008054815260200190815260200160002060010160006101000a81548160ff0219169083151502179055505b600360008054815260200190815260200160002060040160008273ffffffffffffffffffffffffffffffffffffffff1673ffffffffffffffffffffffffffffffffffffffff168152602001908152602001600020508060036000805481526020019081526020016000206003016000600360008054815260200190815260200160002060020154815260200190815260200160002060006101000a81548173ffffffffffffffffffffffffffffffffffffffff021916908373ffffffffffffffffffffffffffffffffffffffff160217905550600360008054815260200190815260200160002060020160008154809291906105d19061168e565b919050555050565b60008054141561061e576040517f08c379a000000000000000000000000000000000000000000000000000000000815260040161061590611373565b60405180910390fd5b662386f26fc100003414610667576040517f08c379a000000000000000000000000000000000000000000000000000000000815260040161065e90611433565b60405180910390fd5b61066f610f42565b156106af576040517f08c379a00000000000000000000000000000000000000000000000000000000081526004016106a6906113b3565b60405180910390fd5b6106b881610e7b565b6106f7576040517f08c379a00000000000000000000000000000000000000000000000000000000081526004016106ee90611453565b60405180910390fd5b600360008054815260200190815260200160002060050160003373ffffffffffffffffffffffffffffffffffffffff1673ffffffffffffffffffffffffffffffffffffffff16815260200190815260200160002060009054906101000a900460ff1615610799576040517f08c379a0000000000000000000000000000000000000000000000000000000008152600401610790906113d3565b60405180910390fd5b6001600360008054815260200190815260200160002060050160003373ffffffffffffffffffffffffffffffffffffffff1673ffffffffffffffffffffffffffffffffffffffff16815260200190815260200160002060006101000a81548160ff021916908315150217905550600360008054815260200190815260200160002060040160008273ffffffffffffffffffffffffffffffffffffffff1673ffffffffffffffffffffffffffffffffffffffff168152602001908152602001600020600081548092919061086b9061168e565b919050555050565b60008054905090565b60003373ffffffffffffffffffffffffffffffffffffffff16600260009054906101000a900473ffffffffffffffffffffffffffffffffffffffff1673ffffffffffffffffffffffffffffffffffffffff1614905090565b600260009054906101000a900473ffffffffffffffffffffffffffffffffffffffff1673ffffffffffffffffffffffffffffffffffffffff163373ffffffffffffffffffffffffffffffffffffffff1614610964576040517f08c379a000000000000000000000000000000000000000000000000000000000815260040161095b90611473565b60405180910390fd5b60008054146109a8576040517f08c379a000000000000000000000000000000000000000000000000000000000815260040161099f906113f3565b60405180910390fd5b600260009054906101000a900473ffffffffffffffffffffffffffffffffffffffff1673ffffffffffffffffffffffffffffffffffffffff166108fc479081150290604051600060405180830381858888f19350505050158015610a10573d6000803e3d6000fd5b50565b600080541415610a58576040517f08c379a0000000000000000000000000000000000000000000000000000000008152600401610a4f90611373565b60405180910390fd5b610a60610f42565b610a9f576040517f08c379a0000000000000000000000000000000000000000000000000000000008152600401610a9690611413565b60405180910390fd5b600080600080600090505b600360008054815260200190815260200160002060020154811015610ba55760006003600080548152602001908152602001600020600301600083815260200190815260200160002060009054906101000a900473ffffffffffffffffffffffffffffffffffffffff1690506000600360008054815260200190815260200160002060040160008373ffffffffffffffffffffffffffffffffffffffff1673ffffffffffffffffffffffffffffffffffffffff16815260200190815260200160002054905060008114158015610b805750848110155b15610b9057809450819550600193505b50508080610b9d9061168e565b915050610aaa565b5082600360008054815260200190815260200160002060010160016101000a81548173ffffffffffffffffffffffffffffffffffffffff021916908373ffffffffffffffffffffffffffffffffffffffff1602179055506000600360008054815260200190815260200160002060010160006101000a81548160ff021916908315150217905550600080819055508015610c99578273ffffffffffffffffffffffffffffffffffffffff166108fc605a606447610c629190611587565b610c6c91906115b8565b9081150290604051600060405180830381858888f19350505050158015610c97573d6000803e3d6000fd5b505b505050565b6060600360008381526020019081526020016000206002015467ffffffffffffffff811115610cf6577f4e487b7100000000000000000000000000000000000000000000000000000000600052604160045260246000fd5b604051908082528060200260200182016040528015610d2f57816020015b610d1c610fb1565b815260200190600190039081610d145790505b50905060005b6003600084815260200190815260200160002060020154811015610e7557600060036000858152602001908152602001600020600301600083815260200190815260200160002060009054906101000a900473ffffffffffffffffffffffffffffffffffffffff16905060405180604001604052808273ffffffffffffffffffffffffffffffffffffffff1681526020016003600087815260200190815260200160002060040160008473ffffffffffffffffffffffffffffffffffffffff1673ffffffffffffffffffffffffffffffffffffffff16815260200190815260200160002054815250838381518110610e56577f4e487b7100000000000000000000000000000000000000000000000000000000600052603260045260246000fd5b6020026020010181905250508080610e6d9061168e565b915050610d35565b50919050565b6000805b600360008054815260200190815260200160002060020154811015610f37578273ffffffffffffffffffffffffffffffffffffffff166003600080548152602001908152602001600020600301600083815260200190815260200160002060009054906101000a900473ffffffffffffffffffffffffffffffffffffffff1673ffffffffffffffffffffffffffffffffffffffff161415610f24576001915050610f3d565b8080610f2f9061168e565b915050610e7f565b50600090505b919050565b60006203f480600360008054815260200190815260200160002060000154610f6a9190611531565b4211905090565b604051806080016040528060008152602001600015158152602001600073ffffffffffffffffffffffffffffffffffffffff168152602001606081525090565b6040518060400160405280600073ffffffffffffffffffffffffffffffffffffffff168152602001600081525090565b600081359050610ff0816118a6565b92915050565b60006020828403121561100857600080fd5b600061101684828501610fe1565b91505092915050565b600061102b8383611286565b60408301905092915050565b600061104383836112b5565b905092915050565b61105481611646565b82525050565b6000611065826114ce565b61106f81856114fe565b935061107a836114ae565b8060005b838110156110ab578151611092888261101f565b975061109d836114e4565b92505060018101905061107e565b5085935050505092915050565b60006110c3826114d9565b6110cd818561150f565b9350836020820285016110df856114be565b8060005b8581101561111b57848403895281516110fc8582611037565b9450611107836114f1565b925060208a019950506001810190506110e3565b50829750879550505050505092915050565b61113681611658565b82525050565b61114581611658565b82525050565b6000611158601383611520565b915061116382611735565b602082019050919050565b600061117b601083611520565b91506111868261175e565b602082019050919050565b600061119e601483611520565b91506111a982611787565b602082019050919050565b60006111c1600e83611520565b91506111cc826117b0565b602082019050919050565b60006111e4601783611520565b91506111ef826117d9565b602082019050919050565b6000611207601783611520565b915061121282611802565b602082019050919050565b600061122a600c83611520565b91506112358261182b565b602082019050919050565b600061124d601783611520565b915061125882611854565b602082019050919050565b6000611270600e83611520565b915061127b8261187d565b602082019050919050565b60408201600082015161129c600085018261104b565b5060208201516112af6020850182611318565b50505050565b60006080830160008301516112cd6000860182611318565b5060208301516112e0602086018261112d565b5060408301516112f3604086018261104b565b506060830151848203606086015261130b828261105a565b9150508091505092915050565b61132181611684565b82525050565b61133081611684565b82525050565b6000602082019050818103600083015261135081846110b8565b905092915050565b600060208201905061136d600083018461113c565b92915050565b6000602082019050818103600083015261138c8161114b565b9050919050565b600060208201905081810360008301526113ac8161116e565b9050919050565b600060208201905081810360008301526113cc81611191565b9050919050565b600060208201905081810360008301526113ec816111b4565b9050919050565b6000602082019050818103600083015261140c816111d7565b9050919050565b6000602082019050818103600083015261142c816111fa565b9050919050565b6000602082019050818103600083015261144c8161121d565b9050919050565b6000602082019050818103600083015261146c81611240565b9050919050565b6000602082019050818103600083015261148c81611263565b9050919050565b60006020820190506114a86000830184611327565b92915050565b6000819050602082019050919050565b6000819050602082019050919050565b600081519050919050565b600081519050919050565b6000602082019050919050565b6000602082019050919050565b600082825260208201905092915050565b600082825260208201905092915050565b600082825260208201905092915050565b600061153c82611684565b915061154783611684565b9250827fffffffffffffffffffffffffffffffffffffffffffffffffffffffffffffffff0382111561157c5761157b6116d7565b5b828201905092915050565b600061159282611684565b915061159d83611684565b9250826115ad576115ac611706565b5b828204905092915050565b60006115c382611684565b91506115ce83611684565b9250817fffffffffffffffffffffffffffffffffffffffffffffffffffffffffffffffff0483118215151615611607576116066116d7565b5b828202905092915050565b600061161d82611684565b915061162883611684565b92508282101561163b5761163a6116d7565b5b828203905092915050565b600061165182611664565b9050919050565b60008115159050919050565b600073ffffffffffffffffffffffffffffffffffffffff82169050919050565b6000819050919050565b600061169982611684565b91507fffffffffffffffffffffffffffffffffffffffffffffffffffffffffffffffff8214156116cc576116cb6116d7565b5b600182019050919050565b7f4e487b7100000000000000000000000000000000000000000000000000000000600052601160045260246000fd5b7f4e487b7100000000000000000000000000000000000000000000000000000000600052601260045260246000fd5b7f4e6f742061637469766520766f74696e67732100000000000000000000000000600082015250565b7f43616e6469646174652065786973742100000000000000000000000000000000600082015250565b7f566f74696e672074696d65206578706972656421000000000000000000000000600082015250565b7f416c726561647920766f74656421000000000000000000000000000000000000600082015250565b7f566f74696e67206973206163746976652e205761697421000000000000000000600082015250565b7f566f74696e672074696d65206e6f742065787069726564000000000000000000600082015250565b7f50617920302e3031206574680000000000000000000000000000000000000000600082015250565b7f43616e64696461746520646f206e6f7420657869737421000000000000000000600082015250565b7f4f6e6c7920666f72206f776e6572000000000000000000000000000000000000600082015250565b6118af81611646565b81146118ba57600080fd5b5056fea2646970667358221220f41875852e3581ec13bee5ec669344461e20e1f5c74048fc79341088460d6ad364736f6c63430008040033",
  "linkReferences": {},
  "deployedLinkReferences": {}
}